:03000000020026D5
:0C002600787FE4F6D8FD75811A02006DA9
:0C0128000A10C0F9A4B0999282F88090EF
:1000030085991A7410251AF8E6F5A0120142120117
:040013004202014262
:030023000200B226
:1000B200C0E0C0F0C083C082C0D075D008C2ACC25C
:1000C20098E5A904F5993099FDC299D280C29D1292
:1000D20001353098FDC280C298D2ACD29D12000385
:0B00E200D0D0D082D083D0F0D0E0322C
:1000ED0075B10175B202E4F5A27598F053877F538F
:1000FD008EFE438E4053890F758B8F758DFDC2AB70
:09010D00D2ACD28ED2AFD28E2208
:10011600E4F596F5951200ED75A90175B90FC28043
:0201260080FE59
:0C0135007F017EEA7D71DDFEDEFCDFFA5A
:01014100229B
:0C0142007F2B7E067DCBDDFEDEFCDFFAAD
:01014E00228E
:10003200020116E493A3F8E493A34003F68001F2CD
:1000420008DFF48029E493A3F85407240CC8C333CF
:10005200C4540F4420C8834004F456800146F6DF9E
:10006200E4800B0102040810204080900128E47E05
:10007200019360BCA3FF543F30E509541FFEE49393
:10008200A360010ECF54C025E060A840B8E493A35A
:10009200FAE493A3F8E493A3C8C582C8CAC583CA85
:1000A200F0A3C8C582C8CAC583CADFE9DEE780BE3D
:0101340000CA
:00000001FF
