:03000000020A0CE5
:0C0A0C00787FE4F6D8FD75814A020A5399
:0C000E007F017EEA7D71DDFEDEFCDFFA82
:01001A0022C3
:0C0BEC007F2B7E067DCBDDFEDEFCDFFAF9
:010BF80022DA
:100BD2000124000121000131FF0A32C0F9A4B099B9
:090BE2009282F8809002220000CA
:03000B00020A984E
:100A9800C0E0C0F0C0D075D000C000C004C005C020
:100AA80006C0070531AF317E00EF7002D290C3EF68
:100AB8009401EE648094804015AC2FAD307E007FA9
:100AC80064120474C3E5319FE49E5002C290AC2FB7
:100AD800AD307E007F641204747C00EFB53109EC00
:100AE800B50605D290753100D007D006D005D004E0
:090AF800D000D0D0D0F0D0E032E3
:03002300020B01CC
:100B0100C0E0C0D075D008C2ACC298E5A904F5997F
:100B11003099FDC299C29DD2803098FDC2988599C5
:100B21003E853E993099FDC2993098FDC2988599CC
:100B3100438543993099FDC2993098FDC298AF9988
:100B4100752F008F308530993099FDC2993098FD0D
:100B5100C298AF99EFF47002D29DD2ACD0D0D0E060
:010B61003261
:100BA60075B10175B202E4F5A27598F053877F53CB
:100BB6008EFE438E4053890F758B8F758DFDC2ABAC
:0C0BC600D2ACD28ED2AF5389F8C2A92263
:1005C500E4F596F595120BA675A90175B90FC280CC
:1005D500E53D453C60FAE530452F60F4E4F547AF6D
:1005E500477E00C3EF9405748094805058C374040B
:1005F5009FFDE49EFC1201D18F178E168D158C146C
:100605007F007E007D207C4112085BC004C005C0D0
:1006150006C007AC3CAD3DE41201D1D003D002D0F9
:1006250001D00012012F12020A7C007D0A12047407
:100635008C2D8D2E7432252EF8E6F5A0C280120B76
:10064500EC0547809A120BEC75A0FF120BECE4F554
:1006550047AF477E00C3EF9403748094805058C31E
:1006650074029FFDE49EFC1201D18F178E168D1525
:100675008C147F007E007D207C4112085BC004C085
:1006850005C006C007AC3CAD3DE41201D1D003D096
:1006950002D001D00012012F12020A7C007D0A123D
:1006A50004748C2B8D2C7432252CF8E6F5A0C280B1
:1006B500120BEC0546809AAE3CAF3DAB07AA06E4AB
:1006C500F9F87F407E427D0FFC120B62EC1201CCE3
:1006D5008F288E278D268C25AC2FAD30E41201D1C5
:1006E5007B0A7AD77923783C1200268F428E418D7A
:1006F500408C3FAB28AA27A926A82512002612025E
:100705000A8E448F45E54525E0FFE54433FEC3E405
:100715009FF52AE49EF529F58C852A8AD28C020557
:01072500D5FE
:10002600EC4D6011E8497017ED33EC3304600DE4D4
:10003600FCFFFEFD22E933E8330470F80202761273
:10004600024158046009E4CC248150062850090274
:10005600028028400302027DC0E0EB4A7044B9806A
:1000660006D0E0FB02026CEF4E701CBD8008EBFF71
:10007600EAFEE9FD80EBE98DF0A4FEE5F002010F52
:10008600E9CDF9EAFEEBFFEF89F0A4FCE5F0CE89B5
:10009600F0A42EFFE435F0CD89F0A42DFEE435F072
:1000A6008067EF4E7005BD80D780C3EF8BF0A4ACA0
:1000B600F0EE8BF0A42CFCE435F0F8EF8AF0A42CDB
:1000C600E5F038FCE433CB8DF0A42CFCE5F03BF8EE
:1000D600EE8AF0A42CFCE5F038F8E433CF89F0A4DE
:1000E6002CFCE5F038CF3400CE89F0A42FFFE5F0E4
:1000F6003EFEE433C98DF0A42EFEE5F039CD8AF03C
:10010600A42FFFE5F03EFEE43DFD33D0E0FB5007B3
:100116000BBB000F020280EC2CFCEF33FFEE33FE2C
:06012600ED33FD0202585A
:10012C00020280EC5D046005E8590470030202765B
:10013C00120241580460F6EC4860F2EC7004FDFECB
:10014C00FF22C860DB2481C85009C39860025006A6
:10015C0002027D9850CAF582E9294B4A7005AB82A0
:10016C0002026C75F0007C1A7880C3EF9BEE9AED5E
:10017C0099400DC3EF9BFFEE9AFEED99FDE842F01E
:10018C00DC23ACF0D0E0FFD0E0FED0E0FDAB822071
:10019C00E7101BEB60BAEC2CFCEF33FFEE33FEEDFB
:1001AC0033FD020258E803F830E705C0F075F000A3
:1001BC00EF2FFFEE33FEED33FD40B830E7C280AADF
:1001CC0075F020800E75F010800575F0087D007EAE
:1001DC00007F003392D530D5031204C9EC334010A4
:1001EC00EF33FFEE33FEED33FDEC33FCD5F0ED22B7
:0E01FC00E5F0247EA2D513CC92E7CDCEFF22F3
:10020A00EDD2E7CD33EC3392D524814006E4FFFEEC
:10021A00FDFC22FCE4CFCECDCC24E0501174FF804B
:10022A00EDC3CC13CCCD13CDCE13CECF13CF0470E8
:07023A00F030D5DE0204C91B
:10085B008F138E128D118C10E4FFFE7D807C3FABCD
:10086B0013AA12A911A81012039D7009AF13AE128F
:10087B00AD11AC1022AF13AE12AD11AC1012028B36
:10088B00FBAF17AE16AD15AC1412028BFFBF0108F0
:10089B00E4FFFE7D807C3F22EF64046022EB640466
:1008AB00601DBB0127E4FFFEFDFCAB17AA16A915C3
:1008BB00A81412039D60084006E4FFFEFDFC2274A1
:1008CB00FFF517F516F515F514020969E4F518F59A
:1008DB0019FFFEFDFCAB13AA12A911A81012039D60
:1008EB00504BAF17AE16AD15AC1412020A8E188F03
:1008FB0019AC18AD19EC1201D1C8ECC8C9EDC9CAB5
:10090B00EECACBEFCBAF17AE16AD15AC141202A8D7
:10091B00E4FBFAF9F812039D70A5AF13AE12AD11FB
:10092B00AC101204168F138E128D118C10AF13AEE8
:10093B0012AD11AC1012075AAB17AA16A915A814B1
:10094B001200261209AA8F178E168D158C14E51915
:10095B0030E00B1204168F178E168D158C14AF17F3
:07096B00AE16AD15AC14221D
:10024100E9D2E7C933E833F892D5EDD2E7CD33EC03
:0702510033FC5002B2D5227C
:10025800EC30E7100FBF000C0EBE00080DBD000407
:100268000BEB6014A2D5EB13FCED92E7FD2274FFB3
:10027800FCFDFEFF22E480F8A2D574FF13FC7D800C
:03028800E480EF20
:10028B00ED33EC33601004700FED547F7005740286
:0A029B0092E0227404220422E422FF
:1002A500020276E86480F8E933E83360110460F00F
:1002B500ED33EC337009E8FCE9FDEAFEEBFF2204BF
:1002C50060DED3EB9FEA9EE99DE8C2E78CF0C2F7BA
:1002D50095F0400CE8CCF8E9CDF9EACEFAEBCFFB86
:1002E50012024185D0F05804700320D5B3E804709C
:1002F500075002B2D502028092D5EC0460F7E4CC37
:10030500C0E0C398F8603B94186008400DD0E0FB4E
:10031500020258E4FBFAC9FC8028E830E406E4C987
:10032500FBE4CAFCE830E305E4C9CACBFCE85407A2
:100335006010F8C3E913F9EA13FAEB13FBEC13FCAD
:10034500D8F130F52FC3E49CFCEF9BFFEE9AFEED50
:1003550099FDD0E0FBEF4E4D4C701222DB030202FB
:100365007DEC2CFCEF33FFEE33FEED33FDED30E796
:10037500EB020258EF2BFFEE3AFEED39FDD0E0FB24
:1003850050130BBB0003020280ED13FDEE13FEEFCD
:0803950013FFEC13FC020258F7
:10039D0074F8CC6480CCC86480C8F58204604FC307
:1003AD00EB9FF5F0EA9E42F0E99D42F0E89C45F0A6
:1003BD00603C501DE5825FFFE582D313CB5BCBF430
:1003CD002B5582FB50280ABA002409B90020088059
:1003DD001DE5825BFBE582D313CF5FCFF4C3132FF3
:1003ED005582FF50090EBE00050DBD00010CC3EB7B
:1003FD009FF5F0EA9E42F0E99D42F0E89C45F060E1
:09040D0007CC4820E701B3EC2202
:10041600ED33EC33600A047003BD8004ECB2E7FCF4
:0104260022B3
:1009720033DA929E35B16011377FE5FE39218489E1
:100982003AAEC3FF3C1D955B3D6358473E75FDF093
:100992003F3172183F800000C2D502028002027607
:1009A200BD80FA50F302027DED33EC330460F17B3B
:1009B2003B7AAA79B8783F120026ED33EC3392D510
:1009C200247B5011A2D570DB500BED4480240450DF
:1009D20004A2D580CEEFFBEEFAEDF9ECF812020A92
:1009E200EFF582F404FC1201D61202ACC082900927
:1009F200727409120436ED33CC33D0F092D525F05F
:0A0A0200A2D57001C313CC13FD222E
:100726003E9248DA3ECCCCCD3F2AAAAB4000000030
:100736003F8000003F9837F03FB504F33FD744FCB5
:100746003E3172173EB172173F0515913EDE5BD9F9
:10075600D2008002C200EDD2E7F8CD33EC3304704C
:100766000BBD800592D502028002027640FBD314AF
:1007760060F2F5F07C3FEE7A00C39496C8948B4005
:10078600230AC89469C8941A401A0AC89468C89477
:100796001F40110AC8945AC89425400805F07A00EB
:1007A600CDC2E7CDC0F08C1A8D1B8E1C8F1DEA239F
:1007B60023C0E02436F582E43407F5831204E712F9
:1007C60002ACECC0E0EDC0E0EEC0E0EFC0E0120429
:1007D600D7A81AA91BAA1CAB1D1202A8D0E0FBD0F1
:1007E600E0FAD0E0F9D0E0B2E7F812012F8C1A8DCA
:1007F6001B8E1C8F1D9007267403120427A81AA9A6
:100806001BAA1CAB1D120026D0E0600F2442F58205
:10081600E43407F5831204E71202AC8C1A8D1B8EA2
:100826001C8F1DD0E0C3947FFDE49400FC1201D11F
:100836007B187A727931783F120026A81AA91BAA6A
:100846001CAB1D1202AC30000B7BD97A5B79DE78CB
:050856003E1200262205
:10042700C0E0EFFBEEFAEDF9ECF8120026D0E0F5AC
:10043700F0EFFBEEFAEDF9ECF81204D7A3A3A3A3B0
:10044700E8C0E0E9C0E0EAC0E0EBC0E0C0F01200BD
:10045700261204E7A3A3A3A31202ACD0F0D0E0FBBB
:0D046700D0E0FAD0E0F9D0E0F8D5F0D422D2
:100A18000205C5E493A3F8E493A34003F68001F22A
:100A280008DFF48029E493A3F85407240CC8C333DF
:100A3800C4540F4420C8834004F456800146F6DFAE
:100A4800E4800B0102040810204080900BD2E47E61
:100A5800019360BCA3FF543F30E509541FFEE493A3
:100A6800A360010ECF54C025E060A840B8E493A36A
:100A7800FAE493A3F8E493A3C8C582C8CAC583CA95
:100A8800F0A3C8C582C8CAC583CADFE9DEE780BE4D
:010BEB000009
:10047400BC000BBE0029EF8DF084FFADF022E4CC6C
:10048400F875F008EF2FFFEE33FEEC33FCEE9DEC35
:10049400984005FCEE9DFE0FD5F0E9E4CEFD22ED7B
:1004A400F8F5F0EE8420D21CFEADF075F008EF2FC5
:1004B400FFED33FD4007985006D5F0F222C398FDB6
:0504C4000FD5F0EA2253
:100B6200C2D5E830E70FB2D5E4C39BFBE49AFAE4BE
:100B720099F9E498F8EC30E717B2D5120B98120500
:100B820033E4C39BFBE49AFAE499F9E498F880030E
:100B920012053330D50DE4C39FFFE49EFEE49DFDB4
:040BA200E49CFC22B1
:0E04C900C3E49FFFE49EFEE49DFDE49CFC2244
:1004D700E493FC740193FD740293FE740393FF226B
:1004E700E493F8740193F9740293FA740393FB226B
:1004F70075F008758200EF2FFFEE33FECD33CDCCBC
:1005070033CCC58233C5829BED9AEC99E58298403E
:100517000CF582EE9BFEED9AFDEC99FC0FD5F0D61B
:10052700E4CEFBE4CDFAE4CCF9A88222B800C1B945
:100537000059BA002DEC8BF084CFCECDFCE5F0CB83
:10054700F97818EF2FFFEE33FEED33FDEC33FCEBBC
:1005570033FB10D703994004EB99FB0FD8E5E4F977
:10056700FA227818EF2FFFEE33FEED33FDEC33FC64
:10057700C933C910D7059BE99A4007EC9BFCE99A58
:10058700F90FD8E0E4C9FAE4CCFB2275F010EF2F9D
:10059700FFEE33FEED33FDCC33CCC833C810D7079D
:1005A7009BEC9AE899400AED9BFDEC9AFCE899F8D8
:0E05B7000FD5F0DAE4CDFBE4CCFAE4C8F9226B
:00000001FF
