:030000000200D12A
:0C00D100787FE4F6D8FD75811C02011850
:0C0015000A12C0F9A4B0999282F8809001
:1000260085991CE51C24FE602D14604114604C1457
:1000360060571470030200BC240560030200C775F4
:100046001001AF107801EF08800103D8FDF510F517
:10005600A01201CE80EC751001AF107801EF088078
:100066000123D8FDF510F5A01201CE80EC75A0CCC9
:100076001201CE75A0331201CE80F275A055120181
:10008600CE75A0AA1201CE80F2751001E4F511E535
:100096001125E02510F510F5A01201C11201C112BB
:1000A60001C11201C11201C11201C10511E511C33D
:1000B600940940DB80D3E4F5A01201CE1201CE8074
:0B00C600F5E4F5A01201CE851CA0227D
:0300230002015D7A
:10015D00C0E0C0F0C083C082C0D075D008C2ACC2B0
:10016D0098E5A904F5993099FDC299D297C29D12CF
:10017D0001C13098FDC297C298D2ACD29D12002613
:0B018D00D0D0D082D083D0F0D0E03280
:1001980075B10175B202E4F5A27598F053877F53E3
:1001A8008EFE438E4053890F758B8F758DFDC2ABC4
:0901B800D2ACD28ED2AFD28E225D
:10000300E4F596F59512019875A90275B90FC29793
:0200130080FE6D
:0C01C1007F017EEA7D71DDFEDEFCDFFACE
:0101CD00220F
:0C01CE007F2B7E067DCBDDFEDEFCDFFA21
:0101DA002202
:1000DD00020003E493A3F8E493A34003F68001F236
:1000ED0008DFF48029E493A3F85407240CC8C33324
:1000FD00C4540F4420C8834004F456800146F6DFF3
:10010D00E4800B0102040810204080900015E47E6D
:10011D00019360BCA3FF543F30E509541FFEE493E7
:10012D00A360010ECF54C025E060A840B8E493A3AE
:10013D00FAE493A3F8E493A3C8C582C8CAC583CAD9
:10014D00F0A3C8C582C8CAC583CADFE9DEE780BE91
:0100210000DE
:00000001FF
