:030000000208A053
:0C08A000787FE4F6D8FD75812E0208E791
:0C09A6007F017EEA7D71DDFEDEFCDFFAE1
:0109B2002222
:0C09B3007F2B7E067DCBDDFEDEFCDFFA34
:0109BF002215
:0F0996000121000A24C0F9A4B0999282F8809040
:1005D70085992EE52E24FE60401460671460701420
:1005E70060791470030206E0240560030206E875CB
:1005F7002201E4F510C3E51094077480948040034A
:100607000206EEAF227801EF08800103D8FDF5223C
:10061700F5A01209B3051080DC752203E4F510C3B9
:10062700E51094077480948040030206EEAF2278A9
:1006370001EF08800123D8FDF522F5A01209B305C3
:100647001080DC75A0CC1209B375A0330206EB75D8
:10065700A0551209B375A0AA0206EB7522FFE4F5AF
:1006670023C3E523940874809480507BAC23E41261
:1006770001288F188E178D168C157F007E007D0040
:100687007C401206EFA804A905AA06AB07E4FFFE03
:100697007D807C4312002912015C8F228522A012E3
:1006A70009A61209A61209A61209A61209A6120975
:1006B700A61209A61209A61209A61209A61209A6C8
:1006C7001209A61209A61209A61209A61209A6124C
:1006D70009A61209A605238088E4F5A01209B380AC
:0706E7000375A0FF1209B327
:0106EE0022E9
:0300230002092CA3
:10092C00C0E0C0F0C083C082C0D075D008C2ACC2D9
:10093C0098E5A904F599C29D3099FDC299D29712F8
:10094C0009A63098FDC297C298D2ACD29D752101F0
:0B095C00D0D0D082D083D0F0D0E032A9
:1009670075B10175B202E4F5A27598F053877F530C
:100977008EFE438E4053890F758B8F758DFDC2ABED
:0F098700D2AC43B81043B710D28ED2AFD28E226B
:10000300E4F596F59512096775A90275B90FC297BC
:0B001300E521640170FA1205D780F5AA
:100026000201C8E86480F8E933E83360110460F03F
:10003600ED33EC337009E8FCE9FDEAFEEBFF220440
:1000460060DED3EB9FEA9EE99DE8C2E78CF0C2F73B
:1000560095F0400CE8CCF8E9CDF9EACEFAEBCFFB07
:1000660012019385D0F05804700320D5B3E80470CC
:10007600075002B2D50201D292D5EC0460F7E4CC67
:10008600C0E0C398F8603B94186008400DD0E0FBD0
:100096000201AAE4FBFAC9FC8028E830E406E4C9B8
:1000A600FBE4CAFCE830E305E4C9CACBFCE8540724
:1000B6006010F8C3E913F9EA13FAEB13FBEC13FC2F
:1000C600D8F130F52FC3E49CFCEF9BFFEE9AFEEDD2
:1000D60099FDD0E0FBEF4E4D4C701222DB0302017E
:1000E600CFEC2CFCEF33FFEE33FEED33FDED30E7C6
:1000F600EB0201AAEF2BFFEE3AFEED39FDD0E0FB55
:1001060050130BBB00030201D2ED13FDEE13FEEFFD
:0801160013FFEC13FC0201AA27
:10011E0075F020800E75F010800575F0087D007E5C
:10012E00007F003392D530D503120474EC334010A7
:10013E00EF33FFEE33FEED33FDEC33FCD5F0ED2265
:0E014E00E5F0247EA2D513CC92E7CDCEFF22A1
:10015C00EDD2E7CD33EC3392D524814006E4FFFE9B
:10016C00FDFC22FCE4CFCECDCC24E0501174FF80FA
:10017C00EDC3CC13CCCD13CDCE13CECF13CF047097
:07018C00F030D5DE0204741F
:1006EF008F148E138D128C11E4FFFE7D807C3FAB37
:1006FF0014AA13A912A8111202FD7009AF14AE1398
:10070F00AD12AC1122AF14AE13AD12AC111201DD4C
:10071F00FBAF18AE17AD16AC151201DDFFBF010808
:10072F00E4FFFE7D807C3F22EF64046022EB6404D3
:10073F00601DBB0127E4FFFEFDFCAB18AA17A9162D
:10074F00A8151202FD60084006E4FFFEFDFC2274AE
:10075F00FFF518F517F516F5150207FDE4F519F570
:10076F001AFFFEFDFCAB14AA13A912A8111202FD69
:10077F00504BAF18AE17AD16AC1512015C8E198F1A
:10078F001AAC19AD1AEC120123C8ECC8C9EDC9CACD
:10079F00EECACBEFCBAF18AE17AD16AC15120029C2
:1007AF00E4FBFAF9F81202FD70A5AF14AE13AD1207
:1007BF00AC111203768F148E138D128C11AF14AEF1
:1007CF0013AD12AC111204D6AB18AA17A916A8159F
:1007DF001201F712083E8F188E178D168C15E51A19
:1007EF0030E00B1203768F188E178D168C15AF18FD
:0707FF00AE17AD16AC152288
:10019300E9D2E7C933E833F892D5EDD2E7CD33ECB2
:0701A30033FC5002B2D5222B
:1001AA00EC30E7100FBF000C0EBE00080DBD0004B6
:1001BA000BEB6014A2D5EB13FCED92E7FD2274FF62
:1001CA00FCFDFEFF22E480F8A2D574FF13FC7D80BB
:0301DA00E480EFCF
:1001DD00ED33EC33601004700FED547F7005740235
:0A01ED0092E0227404220422E422AE
:1001F700EC4D6011E8497017ED33EC3304600DE402
:10020700FCFFFEFD22E933E8330470F80201C8124F
:10021700019358046009E4CC248150062850090250
:1002270001D22840030201CFC0E0EB4A7044B980F5
:1002370006D0E0FB0201BEEF4E701CBD8008EBFF4D
:10024700EAFEE9FD80EBE98DF0A4FEE5F00202E0AD
:10025700E9CDF9EAFEEBFFEF89F0A4FCE5F0CE89E2
:10026700F0A42EFFE435F0CD89F0A42DFEE435F09F
:100277008067EF4E7005BD80D780C3EF8BF0A4ACCD
:10028700F0EE8BF0A42CFCE435F0F8EF8AF0A42C08
:10029700E5F038FCE433CB8DF0A42CFCE5F03BF81B
:1002A700EE8AF0A42CFCE5F038F8E433CF89F0A40B
:1002B7002CFCE5F038CF3400CE89F0A42FFFE5F011
:1002C7003EFEE433C98DF0A42EFEE5F039CD8AF069
:1002D700A42FFFE5F03EFEE43DFD33D0E0FB5007E1
:1002E7000BBB000F0201D2EC2CFCEF33FFEE33FE09
:0602F700ED33FD0201AA37
:1002FD0074F8CC6480CCC86480C8F58204604FC3A8
:10030D00EB9FF5F0EA9E42F0E99D42F0E89C45F046
:10031D00603C501DE5825FFFE582D313CB5BCBF4D0
:10032D002B5582FB50280ABA002409B900200880F9
:10033D001DE5825BFBE582D313CF5FCFF4C3132F93
:10034D005582FF50090EBE00050DBD00010CC3EB1B
:10035D009FF5F0EA9E42F0E99D42F0E89C45F06081
:09036D0007CC4820E701B3EC22A3
:10037600ED33EC33600A047003BD8004ECB2E7FC95
:010386002254
:1008060033DA929E35B16011377FE5FE392184894E
:100816003AAEC3FF3C1D955B3D6358473E75FDF000
:100826003F3172183F800000C2D50201D20201C8D2
:10083600BD80FA50F30201CFED33EC330460F17B57
:100846003B7AAA79B8783F1201F7ED33EC3392D5AB
:10085600247B5011A2D570DB500BED44802404504C
:1008660004A2D580CEEFFBEEFAEDF9ECF812015CAE
:10087600EFF582F404FC12012812002DC0829008C4
:10088600067409120436ED33CC33D0F092D525F038
:0A089600A2D57001C313CC13FD229C
:1004A2003E9248DA3ECCCCCD3F2AAAAB40000000B7
:1004B2003F8000003F9837F03FB504F33FD744FC3C
:1004C2003E3172173EB172173F0515913EDE5BD980
:1004D200D2008002C200EDD2E7F8CD33EC330470D3
:1004E2000BBD800592D50201D20201C840FBD31494
:1004F20060F2F5F07C3FEE7A00C39496C8948B408C
:10050200230AC89469C8941A401A0AC89468C894FD
:100512001F40110AC8945AC89425400805F07A0071
:10052200CDC2E7CDC0F08C1B8D1C8E1D8F1EEA2321
:1005320023C0E024B2F582E43404F583120492125B
:10054200002DECC0E0EDC0E0EEC0E0EFC0E0120430
:1005520082A81BA91CAA1DAB1E120029D0E0FBD049
:10056200E0FAD0E0F9D0E0B2E7F812038A8C1B8DF2
:100572001C8E1D8F1E9004A27403120427A81BA9AF
:100582001CAA1DAB1E1201F7D0E0600F24BEF5823B
:10059200E43404F58312049212002D8C1B8D1C8E00
:1005A2001D8F1ED0E0C3947FFDE49400FC12012352
:1005B2007B187A727931783F1201F7A81BA91CAA1D
:1005C2001DAB1E12002D30000B7BD97A5B79DE78D1
:0505D2003E1201F722BA
:100387000201D2EC5D046005E8590470030201C85C
:10039700120193580460F6EC4860F2EC7004FDFE1D
:1003A700FF22C860DB2481C85009C3986002500649
:1003B7000201CF9850CAF582E9294B4A7005AB82F2
:1003C7000201BE75F0007C1A7880C3EF9BEE9AEDB0
:1003D70099400DC3EF9BFFEE9AFEED99FDE842F0C1
:1003E700DC23ACF0D0E0FFD0E0FED0E0FDAB822014
:1003F700E7101BEB60BAEC2CFCEF33FFEE33FEED9E
:1004070033FD0201AAE803F830E705C0F075F000F4
:10041700EF2FFFEE33FEED33FD40B830E7C280AA81
:10042700C0E0EFFBEEFAEDF9ECF81201F7D0E0F5DA
:10043700F0EFFBEEFAEDF9ECF8120482A3A3A3A305
:10044700E8C0E0E9C0E0EAC0E0EBC0E0C0F01201BC
:10045700F7120492A3A3A3A312002DD0F0D0E0FBC0
:0D046700D0E0FAD0E0F9D0E0F8D5F0D422D2
:1008AC00020003E493A3F8E493A34003F68001F25F
:1008BC0008DFF48029E493A3F85407240CC8C3334D
:1008CC00C4540F4420C8834004F456800146F6DF1C
:1008DC00E4800B0102040810204080900996E47E0D
:1008EC00019360BCA3FF543F30E509541FFEE49311
:1008FC00A360010ECF54C025E060A840B8E493A3D8
:10090C00FAE493A3F8E493A3C8C582C8CAC583CA02
:10091C00F0A3C8C582C8CAC583CADFE9DEE780BEBA
:0109A5000051
:0E047400C3E49FFFE49EFEE49DFDE49CFC2299
:10048200E493FC740193FD740293FE740393FF22C0
:10049200E493F8740193F9740293FA740393FB22C0
:00000001FF
