:03000000020AB63B
:0C0AB600787FE4F6D8FD758148020AFD47
:0C0C65007F017EEA7D71DDFEDEFCDFFA1F
:010C71002260
:0C0C72007F2B7E067DCBDDFEDEFCDFFA72
:010C7E002253
:10098F00750D00750E107590F0AF90EF64F0700359
:10099F00020A23120C65AF90EF64F060777590F048
:1009AF00AF90EF2490602424C0601824E0600C24E2
:1009BF00F0701E750D00750E0C8016750D00750EFE
:1009CF000D800E750D00750E0E8006750D00750EDF
:1009DF000F75900F120C65AF90EF24F5600F24FE8A
:1009EF00600F1460162407701474F4800674F88076
:1009FF000274FC250EF50E74FF8009800B745025D0
:100A0F000EF50EE4350DF50DAF90EF640F70F9AEE6
:080A1F000DAF0E227E007F10D6
:010A270022AC
:100C3500E4F509F50AF50BF50CC28012098F8E4013
:0F0C45008F41E5416410454060EFD280020C7290
:100BE8000A2EC0F9A4B0999282F880900A210000D8
:100BF800000000000000000002400010043900005E
:080C080000000445000000009B
:100C54007599FF3099FDC299AF99EFF470FAC29873
:010C6400226D
:100BBB00D29BD29B8F993099FDC299EF2401FDE412
:100BCB0033FCAE99EE7A00B505F1EAB504EDC298A7
:0D0BDB00120C65D282120C72C29BC29B22CA
:100A2800E52D6401706EFBFA79807843AF3CAE3BEC
:100A3800AD3AAC391202041203588F09AF48AE47D9
:100A4800AD46AC451203588509993099FDC29930D5
:100A580098FDE599B509FBC2988F993099FDC2991F
:100A68003098FDE599B507FBC298AF48AE47AD464B
:100A7800AC451203588F993099FDC2993098FDAC56
:100A880099E4120324AB48AA47A946A8451202A133
:100A980070EDC298E52D6402700F8542993099FD7A
:0E0AA800C299E599B542FBC298D282020C5465
:1004C5008F098B0A8A0B890CE4F548F547F546F543
:1004D50045F53CF53BF53AF539FEEF64027005123A
:1004E5000451F542EF64014E60030206A8F53D751F
:1004F5003E05AB48AA47A946A845C000C001C002B1
:10050500C003AC0DAD0EE412031FC004C005C00648
:10051500C007AC3DAD3EE412031FA804A905AA0619
:10052500AB07D007D006D005D004120006E4FBFACD
:10053500798078BF12000A8F168E158D148C137F63
:10054500007E007D207C411207DEC004C005C00688
:10055500C007AB0AAA0BA90C853E82853D83120410
:100565006AFCE4120324D003D002D001D0001200AB
:10057500FBD003D002D001D00012000A8F488E476D
:100585008D468C45E53E153E7002153DD3E53E94FE
:1005950002E53D940040030204F7E4F53FAF3F7EDA
:1005A50000C3EF940374809480504EC374029FFD82
:1005B500E49EFC12031F8F168E158D148C137F007D
:1005C5007E007D207C411207DEA804A905AA06ABA2
:1005D50007AF48AE47AD46AC45120204120358EFCB
:1005E50075F00A8485F038742E2538F8E6F5A012E2
:1005F5000C72120C72053F80A4753D00753E02AB6E
:100605003CAA3BA93AA839C000C001C002C003AC4E
:100615000DAD0EE412031FE4FBFA798078C01200D9
:100625000AC004C005C006C007AC3DAD3EE41203D8
:100635001FA804A905AA06AB07D007D006D005D088
:10064500041200068F168E158D148C137F007E0004
:100655007D207C411207DEC004C005C006C007AB83
:100665000AAA0BA90C853E82853D8312046AFCE427
:10067500120324D003D002D001D0001200FBD00316
:10068500D002D001D00012000A8F3C8E3B8D3A8CEF
:1006950039E53E153E7002153DC3E53D9400400326
:0406A5000206042223
:100B42008F08D28585082D120BBBD283E4F52BF5D5
:100B52002C120C35E541640F454060117421252C9F
:100B6200F8A641052CE52C70E8052B80E47B007A81
:100B7200007921852B0D852C0EAF081204C5120AAF
:040B820028C28522DE
:100C1100E4F5B175B203F5A27598D053877F538E71
:100C2100FE438E4053890F758B8F758DFDC2ABD2FC
:040C31008EC29822B5
:100B8600120C11C282C283C284C285120C35742E25
:100B96002541F8E6F5A0120C65E541640145407073
:100BA600057F01120B42E5416402454070D57F0284
:050BB600120B4280CE8D
:100003000203C4E86480F8E933E83360110460F064
:10001300ED33EC337009E8FCE9FDEAFEEBFF220463
:1000230060DED3EB9FEA9EE99DE8C2E78CF0C2F75E
:1000330095F0400CE8CCF8E9CDF9EACEFAEBCFFB2A
:1000430012038F85D0F05804700320D5B3E80470F1
:10005300075002B2D50203CE92D5EC0460F7E4CC8C
:10006300C0E0C398F8603B94186008400DD0E0FBF3
:100073000203A6E4FBFAC9FC8028E830E406E4C9DD
:10008300FBE4CAFCE830E305E4C9CACBFCE8540747
:100093006010F8C3E913F9EA13FAEB13FBEC13FC52
:1000A300D8F130F52FC3E49CFCEF9BFFEE9AFEEDF5
:1000B30099FDD0E0FBEF4E4D4C701222DB0302039F
:1000C300CBEC2CFCEF33FFEE33FEED33FDED30E7ED
:1000D300EB0203A6EF2BFFEE3AFEED39FDD0E0FB7A
:1000E30050130BBB00030203CEED13FDEE13FEEF23
:0800F30013FFEC13FC0203A64D
:1000FB00EC4D6011E8497017ED33EC3304600DE4FF
:10010B00FCFFFEFD22E933E8330470F80203C4124E
:10011B00038F58046009E4CC24815006285009024F
:10012B0003CE2840030203CBC0E0EB4A7044B980F6
:10013B0006D0E0FB0203BAEF4E701CBD8008EBFF4C
:10014B00EAFEE9FD80EBE98DF0A4FEE5F00201E4A7
:10015B00E9CDF9EAFEEBFFEF89F0A4FCE5F0CE89DF
:10016B00F0A42EFFE435F0CD89F0A42DFEE435F09C
:10017B008067EF4E7005BD80D780C3EF8BF0A4ACCA
:10018B00F0EE8BF0A42CFCE435F0F8EF8AF0A42C05
:10019B00E5F038FCE433CB8DF0A42CFCE5F03BF818
:1001AB00EE8AF0A42CFCE5F038F8E433CF89F0A408
:1001BB002CFCE5F038CF3400CE89F0A42FFFE5F00E
:1001CB003EFEE433C98DF0A42EFEE5F039CD8AF066
:1001DB00A42FFFE5F03EFEE43DFD33D0E0FB5007DE
:1001EB000BBB000F0203CEEC2CFCEF33FFEE33FE08
:0601FB00ED33FD0203A636
:100201000203CEEC5D046005E8590470030203C4E7
:1002110012038F580460F6EC4860F2EC7004FDFEA6
:10022100FF22C860DB2481C85009C39860025006D0
:100231000203CB9850CAF582E9294B4A7005AB827B
:100241000203BA75F0007C1A7880C3EF9BEE9AED39
:1002510099400DC3EF9BFFEE9AFEED99FDE842F048
:10026100DC23ACF0D0E0FFD0E0FED0E0FDAB82209B
:10027100E7101BEB60BAEC2CFCEF33FFEE33FEED25
:1002810033FD0203A6E803F830E705C0F075F0007E
:10029100EF2FFFEE33FEED33FD40B830E7C280AA09
:1002A10074F8CC6480CCC86480C8F58204604FC304
:1002B100EB9FF5F0EA9E42F0E99D42F0E89C45F0A3
:1002C100603C501DE5825FFFE582D313CB5BCBF42D
:1002D1002B5582FB50280ABA002409B90020088056
:1002E1001DE5825BFBE582D313CF5FCFF4C3132FF0
:1002F1005582FF50090EBE00050DBD00010CC3EB78
:100301009FF5F0EA9E42F0E99D42F0E89C45F060DD
:0903110007CC4820E701B3EC22FF
:10031A0075F020800E75F010800575F0087D007E5E
:10032A00007F003392D530D503120497EC33401086
:10033A00EF33FFEE33FEED33FDEC33FCD5F0ED2267
:0E034A00E5F0247EA2D513CC92E7CDCEFF22A3
:10035800EDD2E7CD33EC3392D524814006E4FFFE9D
:10036800FDFC22FCE4CFCECDCC24E0501174FF80FC
:10037800EDC3CC13CCCD13CDCE13CECF13CF047099
:07038800F030D5DE020497FE
:1007DE008F128E118D108C0FE4FFFE7D807C3FAB4F
:1007EE0012AA11A910A80F1202A17009AF12AE1110
:1007FE00AD10AC0F22AF12AE11AD10AC0F1203D96B
:10080E00FBAF16AE15AD14AC131203D9FFBF010822
:10081E00E4FFFE7D807C3F22EF64046022EB6404E3
:10082E00601DBB0127E4FFFEFDFCAB16AA15A91443
:10083E00A8131202A160084006E4FFFEFDFC22741C
:10084E00FFF516F515F514F5130208ECE4F517F59A
:10085E0018FFFEFDFCAB12AA11A910A80F1202A1DF
:10086E00504BAF16AE15AD14AC131203588E178F36
:10087E0018AC17AD18EC12031FC8ECC8C9EDC9CAE5
:10088E00EECACBEFCBAF16AE15AD14AC13120006FD
:10089E00E4FBFAF9F81202A170A5AF12AE11AD1079
:1008AE00AC0F1203F38F128E118D108C0FAF12AE90
:1008BE0011AD10AC0F1206DDAB16AA15A914A813B4
:1008CE001200FB12092D8F168E158D148C13E51840
:1008DE0030E00B1203F38F168E158D148C13AF169A
:0708EE00AE15AD14AC13229E
:10038F00E9D2E7C933E833F892D5EDD2E7CD33ECB4
:07039F0033FC5002B2D5222D
:1003A600EC30E7100FBF000C0EBE00080DBD0004B8
:1003B6000BEB6014A2D5EB13FCED92E7FD2274FF64
:1003C600FCFDFEFF22E480F8A2D574FF13FC7D80BD
:0303D600E480EFD1
:1003D900ED33EC33601004700FED547F7005740237
:0A03E90092E0227404220422E422B0
:1003F300ED33EC33600A047003BD8004ECB2E7FC18
:0104030022D6
:1008F50033DA929E35B16011377FE5FE392184895F
:100905003AAEC3FF3C1D955B3D6358473E75FDF010
:100915003F3172183F800000C2D50203CE0203C4E6
:10092500BD80FA50F30203CBED33EC330460F17B69
:100935003B7AAA79B8783F1200FBED33EC3392D5B8
:10094500247B5011A2D570DB500BED44802404505C
:1009550004A2D580CEEFFBEEFAEDF9ECF8120358C0
:10096500EFF582F404FC12032412000AC0829008F9
:10097500F57409120413ED33CC33D0F092D525F07C
:0A098500A2D57001C313CC13FD22AC
:1006A9003E9248DA3ECCCCCD3F2AAAAB40000000AE
:1006B9003F8000003F9837F03FB504F33FD744FC33
:1006C9003E3172173EB172173F0515913EDE5BD977
:1006D900D2008002C200EDD2E7F8CD33EC330470CA
:1006E9000BBD800592D50203CE0203C440FBD3148F
:1006F90060F2F5F07C3FEE7A00C39496C8948B4083
:10070900230AC89469C8941A401A0AC89468C894F4
:100719001F40110AC8945AC89425400805F07A0068
:10072900CDC2E7CDC0F08C198D1A8E1B8F1CEA2320
:1007390023C0E024B9F582E43406F5831204B51226
:10074900000AECC0E0EDC0E0EEC0E0EFC0E012044A
:10075900A5A819A91AAA1BAB1C120006D0E0FBD048
:10076900E0FAD0E0F9D0E0B2E7F81202048C198D72
:100779001A8E1B8F1C9006A97403120404A819A9C8
:100789001AAA1BAB1C1200FBD0E0600F24C5F5822E
:10079900E43406F5831204B512000A8C198D1A8EF9
:1007A9001B8F1CD0E0C3947FFDE49400FC12031F4F
:1007B9007B187A727931783F1200FBA819A91AAA15
:1007C9001BAB1C12000A30000B7BD97A5B79DE78EF
:0507D9003E1200FB22AE
:10040400C0E0EFFBEEFAEDF9ECF81200FBD0E0F5FA
:10041400F0EFFBEEFAEDF9ECF81204A5A3A3A3A305
:10042400E8C0E0E9C0E0EAC0E0EBC0E0C0F01200E0
:10043400FB1204B5A3A3A3A312000AD0F0D0E0FBDF
:0D044400D0E0FAD0E0F9D0E0F8D5F0D422F5
:100AC200020B86E493A3F8E493A34003F68001F2B9
:100AD20008DFF48029E493A3F85407240CC8C33335
:100AE200C4540F4420C8834004F456800146F6DF04
:100AF200E4800B0102040810204080900BE8E47EA1
:100B0200019360BCA3FF543F30E509541FFEE493F8
:100B1200A360010ECF54C025E060A840B8E493A3BF
:100B2200FAE493A3F8E493A3C8C582C8CAC583CAEA
:100B3200F0A3C8C582C8CAC583CADFE9DEE780BEA2
:010C100000E3
:10045100BB010689828A83E0225002E722BBFE02A9
:09046100E32289828A83E49322DC
:10046A00BB010CE58229F582E5833AF583E0225047
:10047A0006E92582F8E622BBFE06E92582F8E22291
:0D048A00E58229F582E5833AF583E49322AB
:0E049700C3E49FFFE49EFEE49DFDE49CFC2276
:1004A500E493FC740193FD740293FE740393FF229D
:1004B500E493F8740193F9740293FA740393FB229D
:00000001FF
