:030000000201FA00
:0C01FA00787FE4F6D8FD75811C020241FC
:0C03A5007F017EEA7D71DDFEDEFCDFFAE8
:0103B1002229
:0C03B2007F2B7E067DCBDDFEDEFCDFFA3B
:0103BE00221C
:10016700E4F51BF51C7590F0E59064F0700302014F
:10017700F61203A5E59064F060757590F0AF90EF07
:100187002490602424C0601824E0600C24F0701EC2
:10019700751B00751C0C8016751B00751C0D800ED9
:1001A700751B00751C0E8006751B00751C0F75905E
:1001B7000F1203A5AF90EF24F5600F24FE600F1414
:1001C70060162407701474F4800674F8800274FCB7
:1001D700251CF51C74FF8009800B7450251CF51C29
:1001E700E4351BF51BE590B40FFBAE1BAF1C22E4F7
:0201F700FEFF09
:0101F90022E3
:10033500E4F517F518F519F51AC2811201678E1241
:100345008F13E51345126005D2810203B2AE12AFD9
:10035500137C007D0A1201128C178D18AE12AF1393
:0D0365007C007D0A1201128E198F1A80CCC7
:0103BF00003D
:10039400021200000A08C0F9A4B0999282F8809071
:10037200E4F5B175B203F5A27598D053877F538E19
:10038200FE438E4053890F758B8F758DFDC2ABD2A4
:020392008E22B9
:100286008F178B188A19891AD29BD29B851799309A
:1002960099FDC299D280E5172401FFE433FEAD999A
:1002A600EDB507F2E4B506EE1203B2C2801203B250
:1002B600C29BC29BAB18AA19A91A1200F9FF6014B7
:1002C600F5993099FDC2997401251AF51AE4351984
:0902D600F51980E0D2800203B2A8
:1002DF0078167C007D007BFF7A0379BF7E007F015B
:1002EF001200D31203B2120372C2B7D2B5C280C2C8
:1002FF0082C28312033585121485131574082515D0
:10030F00F8E6F5A0D2821203358513167408251668
:10031F00F8E6F5A0D2831203B2AF157B007A00790D
:06032F001612028680C7D1
:100206000202DFE493A3F8E493A34003F68001F22D
:1002160008DFF48029E493A3F85407240CC8C333F9
:10022600C4540F4420C8834004F456800146F6DFC8
:10023600E4800B0102040810204080900394E47EC1
:10024600019360BCA3FF543F30E509541FFEE493BD
:10025600A360010ECF54C025E060A840B8E493A384
:10026600FAE493A3F8E493A3C8C582C8CAC583CAAF
:10027600F0A3C8C582C8CAC583CADFE9DEE780BE67
:0103A4000058
:10000300E709F608DFFA8046E709F208DFFA803EDF
:1000130088828C83E709F0A3DFFA8032E309F608CC
:10002300DFFA8078E309F208DFFA807088828C8334
:10003300E309F0A3DFFA806489828A83E0A3F608E8
:10004300DFFA805889828A83E0A3F208DFFA804CC2
:1000530080D280FA80C680D4806980F28033801099
:1000630080A680EA809A80A880DA80E280CA803302
:1000730089828A83ECFAE493A3C8C582C8CCC5837A
:10008300CCF0A3C8C582C8CCC583CCDFE9DEE7804A
:100093000D89828A83E493A3F608DFF9ECFAA9F0C9
:1000A300EDFB2289828A83ECFAE0A3C8C582C8CC1F
:1000B300C583CCF0A3C8C582C8CCC583CCDFEADE38
:1000C300E880DB89828A83E493A3F208DFF980CC9A
:1000D30088F0EF60010E4E60C388F0ED2402B40493
:1000E3000050B9F582EB2402B4040050AF2323453A
:0600F3008223900053730C
:1000F900BB010689828A83E0225002E722BBFE0205
:09010900E32289828A83E4932237
:10011200BC000BBE0029EF8DF084FFADF022E4CCD1
:10012200F875F008EF2FFFEE33FEEC33FCEE9DEC9A
:10013200984005FCEE9DFE0FD5F0E9E4CEFD22EDE0
:10014200F8F5F0EE8420D21CFEADF075F008EF2F2A
:10015200FFED33FD4007985006D5F0F222C398FD1B
:050162000FD5F0EA22B8
:00000001FF
